:100000000C9434000C943E000C943E000C943E0082
:100010000C943E000C943E000C943E000C943E0068
:100020000C943E000C943E000C943E000C943E0058
:100030000C943E000C943E000C943E000C943E0048
:100040000C943E000C943E000C943E000C943E0038
:100050000C943E000C943E000C943E000C943E0028
:100060000C943E000C943E0011241FBECFEFD8E04C
:10007000DEBFCDBF0E9440000C9456000C940000DF
:1000800083E085B92FEF33EC99E021503040904068
:10009000E1F700C0000015B82FEF33EC99E02150D4
:1000A00030409040E1F700C00000EBCFF894FFCF64
:00000001FF
