:100000000C94A0010C94BD010C94BD010C94BD0195
:100010000C94BD010C94BD010C94BD010C94BD0168
:100020000C94BD010C94BD010C94BD010C94C30251
:100030000C94BD010C94BD010C94BD010C94BD0148
:100040000C94BD010C94BD010C94BD010C94BD0138
:100050000C94BD010C94BD010C94BD010C94BD0128
:100060000C94BD010C94BD010000000000000000D4
:100070000000000000000000000000000000000080
:100080000000000000000000000000000000000070
:100090000000000000000000000000000000000060
:1000A0000000000000000000000000000000000050
:1000B0000000000000000000000000000000000040
:1000C0000000000000000000000000000000000030
:1000D0000000000000000000000000000000000020
:1000E0000000000000000000000000000000000010
:1000F0000000000000000000000000000000000000
:1001000000000000000000000000000000000000EF
:1001100000000000000000000000000000000000DF
:1001200000000000000000000000000000000000CF
:1001300000000000000000000000000000000000BF
:1001400000000000000000000000000000000000AF
:10015000000000000000000000000000000000009F
:10016000000000000000000000000000000000008F
:100170001FBF1F0000000000000000000000000082
:1001800066FFFF66FFFF6600000000000000000041
:10019000000000000000000000000000000000005F
:1001A000000000000000000000000000000000004F
:1001B000000000000000000000000000000000003F
:1001C000000000000000000000000000000000002F
:1001D0000000000000000000C0C00000000000009F
:1001E00000000000000000007EC3B19DC37E00003F
:1001F000000000FFFF00000000E291918989860065
:1002000000C3DBDBDBDBFF00001F1F1818FFFF0054
:10021000CFCFC9C9C9F900007EDB8B8BDB70000032
:1002200083C36131190D070000FFFF9999FFFF009B
:100230000E1B31311BFFFE000000666666000000E9
:100240000C3E7EFCFC7E3E0C000000000000000026
:10025000000000000000000000000000000000009E
:10026000000000000000000000000000000000008E
:10027000FCFE131313FEFC00FFFF898FFE700000CD
:100280007EFFC3C3C3C3C300FFFFC3C3E67E180022
:10029000FFFFDBDBDBC30000FFFF1B1B03030000D2
:1002A000FFFFC3C3DBDBFB00FFFF181818FFFF00D5
:1002B00000C3C3FFC3C30000E0E3C3FF7F03030029
:1002C00000FFFF1C36E3C1000000FFFFC0C0C000FC
:1002D000FFFF060C06FFFF00FFFF061C30FFFF00BC
:1002E0003C7EC3C3C37E3C0000FFFF1111110E0012
:1002F0003C7EC3D3E37E9C00FEFF11317BCE8000A9
:10030000DFDFD9D9F9F90000000303FFFF03030081
:10031000FFFFC0C0C0FFFF00071F78E0781F070085
:100320007FFFC07CC0FF7F00C16336183663C10009
:1003300083CEFC380C070300C3E3F3DBDBCFC7003D
:1003400011241FBECFEFD8E0DEBFCDBF11E0A0E08B
:10035000B1E0E4EEF9E002C005900D92AC34B107D3
:10036000D9F721E0ACE4B1E001C01D92AA39B2078F
:10037000E1F70E94B9030C94F0040C94000091E0A2
:1003800085B1892785B92FEF35EA8EE021503040BD
:100390008040E1F700C00000F3CF1092C50087E66F
:1003A0008093C40088E08093C10086E08093C200FF
:1003B00008959091C00095FFFCCF8093C6000895EA
:1003C00089E090E00E94C803182F092F63E371E0D1
:1003D000812F902F0E94E904C12FD02F1C2F0D2FA9
:1003E0008991882399F30E94D901F8CF209A089522
:1003F000E1E8F0E080818860808380818460808390
:1004000080818160808388E391E09093890080936C
:100410008800EFE6F0E08081826080830895FC012F
:10042000828193819EBF8DBF24813581C901992727
:100430008F93232F33272F930F920FB60F921F9274
:100440002F923F924F925F926F927F928F929F92E4
:10045000AF92BF92CF92DF92EF92FF920F931F93D2
:100460002F933F934F935F936F937F938F939F93BC
:10047000AF93BF93CF93DF93EF93FF938DB79EB767
:100480009383828308958CE091E00E940F0286E0BE
:1004900091E00E940F0280E091E00E940F028CE048
:1004A00091E090939501809394010895E0919401D7
:1004B000F09195018DB79EB7938382830F920FB60B
:1004C0000F921F922F923F924F925F926F927F9264
:1004D0008F929F92AF92BF92CF92DF92EF92FF9254
:1004E0000F931F932F933F934F935F936F937F933C
:1004F0008F939F93AF93BF93CF93DF93EF93FF932C
:1005000081E0EC30F80719F480E091E008C0E05099
:10051000F14019F486E091E002C08CE091E0909304
:10052000950180939401E0919401F091950182816D
:1005300093819EBF8DBFFF91EF91DF91CF91BF91CE
:10054000AF919F918F917F916F915F914F913F916B
:100550002F911F910F91FF90EF90DF90CF90BF9060
:10056000AF909F908F907F906F905F904F903F9053
:100570002F901F900F900FBE0F900480F581E02DFB
:1005800080E090E009941F920F920FB60F92112411
:100590008F939F93789495B181E0892785B99F9136
:1005A0008F910F900FBE0F901F90189584B18C62A1
:1005B00084B983E58CBD08958EBD0DB407FEFDCFD3
:1005C0008EB508950F931F93CF93DF93FC01208185
:1005D000F8E02F0290011124FC0151815A3029F0DA
:1005E000F8E05F02C001112402C080E090E0DB016E
:1005F000A45BBE4F77FD1EC0ECE4F1E0ED01EA170D
:10060000FB0711F01192FBCF261B370B68307105E9
:1006100051F0F901E60FF71FE859FF4FE491E99314
:100620006F5F7F4FF3CFACE4B1E024E531E0C4E588
:10063000D1E029C0CCE4D1E08A1B9B0B5A3051F0A9
:10064000FC01EA0FFB1FE859FF4FE4911896EC9369
:10065000189703C018961C9218971196CA17DB07B3
:1006600069F788EF9FEF261B370B285F3F4F8617F0
:100670009707CCF6F901E80FF91FE859FF4FE4910D
:10068000E9930196F4CF6D91062E000C770BF901DA
:1006900087E090E08B01082E02C0159507950A941B
:1006A000E2F700FF02C0408301C010820197389634
:1006B0008F3F5FEF950771F72F5F3F4FCA17DB073B
:1006C00011F7DF91CF911F910F9108950E94D602EB
:1006D000C0E0D0E010E0112309F446C0113029F049
:1006E000123029F4C2E1D1E002C0C2E2D1E0EE242E
:1006F000EA94FE2C40EEB701CE010E94E2022A9855
:100700008FE99FE00197F1F700C0000084E5C82E53
:1007100081E0D82EF60181916F010E94DC02F4E99C
:10072000CF16F1E0DF06B1F78FE99FE00197F1F70F
:1007300000C000002A9A9FEFE1EEF4E09150E04003
:10074000F040E1F700C0000021E0E21AF10887EF75
:10075000E8168FEFF80671F68981811108C01F5FD6
:10076000133009F0B8CF10E0C5E2D1E0C0CF219638
:10077000BECF0E94F6010E94CD010E94F8010E94A6
:1007800066030E94430278948CE60E94D901FCCF54
:100790000F931F93CF93DF938230910510F482E083
:1007A00090E0E0919801F091990120E030E0A0E024
:1007B000B0E0309719F140815181028113814817CF
:1007C0005907C8F08417950769F4109731F012960D
:1007D0000C93129713961C9327C0009398011093C3
:1007E000990122C02115310519F04217530718F459
:1007F0009A01BD01EF01DF01F801DBCF21153105C1
:10080000F9F0281B390B2430310580F48A819B8153
:100810006115710521F0FB019383828304C09093DD
:10082000990180939801FE01329644C0FE01E20FC7
:10083000F31F8193919322503109398328833AC061
:100840002091960130919701232B41F420912F01A3
:1008500030913001309397012093960120912D0122
:1008600030912E012115310541F42DB73EB740914D
:10087000310150913201241B350BE0919601F0912A
:100880009701E217F307A0F42E1B3F0B2817390737
:1008900078F0AC014E5F5F4F2417350748F04E0FDC
:1008A0005F1F50939701409396018193919302C0EB
:1008B000E0E0F0E0CF01DF91CF911F910F9108951B
:1008C000CF93DF93009709F481C0FC013297138224
:1008D0001282A0919801B0919901109781F4208122
:1008E0003181820F931F2091960130919701281733
:1008F000390751F5F0939701E093960167C0ED0138
:1009000020E030E0CE17DF0740F44A815B819E0192
:1009100041155105F1F0EA01F5CFD383C28340813F
:100920005181840F951FC817D90759F4888199817F
:10093000840F951F0296918380838A819B81938384
:1009400082832115310529F4F0939901E0939801F0
:100950003DC0E901FB83EA8349915991C40FD51F3A
:10096000EC17FD0761F480819181840F951F029639
:10097000E90199838883828193819B838A83E0E064
:10098000F0E012968D919C911397009719F0FD015C
:10099000DC01F7CF8D919C9111979D012E5F3F4F08
:1009A000820F931F209196013091970128173907E4
:1009B00069F4309729F4109299011092980102C0BD
:1009C00013821282B0939701A0939601DF91CF9189
:1009D0000895FB01DC0101900D920020E1F70895DC
:0409E000F894FFCFB9
:1009E4003C010006660340010007E00147010005E1
:1009F400BF01504F4C5954454348204C494C4C4539
:100A04002100544F0057454C434F4D450000009A78
:100A1400012000626F6E6A6F75720A0052474200CD
:0C0A240053657269616C004C454473001E
:00000001FF
