:100000000C9434000C943E000C943E000C943E0082
:100010000C943E000C943E000C943E000C943E0068
:100020000C943E000C943E000C943E000C94710025
:100030000C943E000C943E000C943E000C943E0048
:100040000C943E000C943E000C943E000C943E0038
:100050000C943E000C943E000C943E000C943E0028
:100060000C943E000C943E0011241FBECFEFD8E04C
:10007000DEBFCDBF0E9483000C948A000C94000068
:1000800084B1836084B978940895E1E8F0E08081D8
:1000900088608083808184608083808181608083A8
:1000A0008AE698E19093890080938800EFE6F0E07B
:1000B0008081826080830895289A2FEF83EC99E0F5
:1000C000215080409040E1F700C0000028982FEFB9
:1000D00083EC99E0215080409040E1F700C000009F
:1000E00008951F920F920FB60F9211248F939F9332
:1000F00095B182E0892785B99F918F910F900FBEAE
:100100000F901F9018950E9440000E9445000E9489
:080110005C00FDCFF894FFCF65
:00000001FF
